:100000000AC023C022C021C020C01FC01EC01DC006
:100010001CC01BC01AC011241FBECFEDCDBF10E005
:10002000A0E6B0E0E8E3F1E003C0C89531960D9298
:10003000A238B107D1F710E0A2E8B0E001C01D92EC
:10004000A338B107E1F759D075C0DACF5D9BFECF79
:100050008CB9089598E19AB989B908955F9BFECF4C
:100060008CB10895EF92FF920F931F93CF93DF937C
:10007000E62EF72E082F192FC0E0D0E008C0E02FA1
:10008000F12F81910E2F1F2F90E0E0DF2196CE15EA
:10009000DF05ACF3DF91CF911F910F91FF90EF90AF
:1000A0000895EF92FF920F931F93CF93DF93E82E63
:1000B000CE2DDF2DEC2EFD2EF92ECE2DDF2D06E2DE
:1000C00010E00FC090E0E02FF12F09952196EE2D62
:1000D000FF2D80818A3029F48DE090E0E02FF12F10
:1000E0000995EC2EFD2E8881882361F7DF91CF9151
:1000F0001F910F91FF90EF9008958FEF81BB82BB0E
:1001000088E18AB98AE189B980E690E066E070E02A
:10011000A9DF87E690E0C5DFA1DF883311F4959A67
:10012000FBCF893311F4969AF7CF8033A9F79598CE
:080130009698F2CFF894FFCF7E
:100138004D475347200A0041543930533233313345
:1001480020736F667420636F726520746573740022
:020158000000A5
:00000001FF
