:100000000AC023C022C021C020C01FC01EC022C001
:100010001CC01BC01AC011241FBECFEDCDBF10E005
:10002000A0E6B0E0ECE5F1E003C0C89531960D9292
:10003000A638B107D1F710E0A6E8B0E001C01D92E4
:10004000A838B107E1F768D087C0DACF5D9BFECF53
:100050008CB908951F920F920FB60F9211248F93AF
:100060008CB1809386008F910F900FBE0F901F90E0
:10007000189598E99AB989B908955F9BFECF8CB11C
:100080000895EF92FF920F931F93CF93DF93E62E85
:10009000F72E082F192FC0E0D0E008C0E02FF12F75
:1000A00081910E2F1F2F90E0D1DF2196CE15DF0515
:1000B000ACF3DF91CF911F910F91FF90EF900895D6
:1000C000EF92FF920F931F93CF93DF93E82ECE2DE5
:1000D000DF2DEC2EFD2EF92ECE2DDF2D06E210E0C9
:1000E0000FC090E0E02FF12F09952196EE2DFF2D06
:1000F00080818A3029F48DE090E0E02FF12F09957E
:10010000EC2EFD2E8881882361F7DF91CF911F911E
:100110000F91FF90EF900895F8948FEF81BB82BB11
:1001200088E98AB98AE189B980E690E066E070E002
:10013000A8DF87E690E0C4DF78948091860088335A
:1001400011F4959AFACF893311F4969AF6CF803349
:0C015000A1F795989698F1CFF894FFCF96
:10015C004D475347200A0041543930533233313321
:10016C0020736F667420636F7265207465737420DE
:06017C00696E7400000032
:00000001FF
